:090F7200014F00015100014E0085
:090F90008F9053B0BF120FAA228A
:090F99008F9043B040120FAA2210
:070FAA0043B08053B07F2229
:100DE400754E0FE4F551F54F7F38120F277F3812F7
:100DF4000F277F38120F277F06120F277F0E120F3F
:0A0E0400277F01120F27120FB12201
:100BAD00E54E6003154E22E5506049D3E551648052
:100BBD009480403DE54F25E02408F8E6F55208E61F
:100BCD00F553054FC3E5516480F8E54F64809840B7
:100BDD0007E4F551F54FF550C3E55264809481AFAC
:100BED00534007120F99E4F54E22120F90754E04E3
:040BFD0022E4F550A9
:010C010022D0
:070FB100E4F54F7550012229
:100EDE00EF3395E0FEE42FFFEE3401FEE54F25E003
:0D0EEE002408F8A60608A607054F055122A6
:100F2700E54F25E02408F8760008A607054F055188
:010F37002297
:060D6B008B538A548955E8
:100D7100C374239551C36480F8ED64809840037F68
:100D8100FF22E4FCC3ED6480F8EC6480985019AB59
:100D910053AA54A955ECFF3395E08F82F5831208CD
:0A0DA10019FF120EDE0C80DC7F004B
:010DAB002225
:100F380053A87FE55060047FFF8002E4FF43A88048
:010F48002286
:100EBF004E4F4B0A004F4B0A00445554592D43597E
:0F0ECF00434C45202020003130003000302500FA
:100C02007B007A00795E120F7CE4F560F55D120ECE
:100C1200FB7F807E25120CE3120F14120DE4120EDC
:100C220080E56030E20E53A87F5360FB43A8801238
:100C32000C9C80EDE56030E00E53A87F5360FE43CC
:100C4200A880120BAD80DAE56030E1D5120AFF8090
:010C5200D0D1
:100C9C007B007A00795EAD5D120A23EF6038E55E69
:100CAC0024FE600E14601224027015AF5F120AA3AA
:100CBC00801BAF5F120B578014AF5F120EA0800D1C
:100CCC007BFF7A0E79BF7D047C00120DAC7B007A21
:060CDC0000795E120F7C9E
:010CE20022EF
:020AA3008F5270
:100AA500120FA28F53E4F554F555E553B4640A7B50
:100AB500FF7A0E79BF7D04803BE55275F00AA4AE3E
:100AC500F07C002553F555EC3EF554D3E55594647B
:100AD500E554648094804006755400755564AF559F
:100AE500120F5953A87F43600243A8807BFF7A0EFB
:090AF50079C47D037C00120DACF4
:010AFE0022D5
:020B57008F52BB
:100B5900120FA28F53E4F554F555E553700B7BFF43
:100B69007A0E79BF7D04FC8037E55275F00AA4FF3F
:100B7900AEF0C3E5539FF555E49EF554C3648094E4
:100B8900805005E4F554F555AF55120F5953A87F18
:100B990043600243A8807BFF7A0E79C47D037C0001
:030BA900120DAC7E
:010BAC002226
:100EA000EF75F00AA4FF120F5953A87F4360024365
:0F0EB000A8807BFF7A0E79C47D037C00020DAC15
:100E80007F0C120F277F83120F277BFF7A0E79C802
:100E90007D0F120D6B7FC6120F27120AFF020FB1D2
:100AFF00120F38EF705153A87F5360FD43A8807FCA
:100B0F000C120F277F83120F277FC6120F27120F8A
:100B1F00A2EF75F00A84F5527BFFB40A0B7A0E79B7
:100B2F00D67D02120D6B80117A0E79D97D01120DCF
:100B3F006BE5522430FF120EDE7BFF7A0E79DB7DE0
:070B4F0002120D6B120FB141
:010B5600227C
:100F140053890F438910758DD0758B10D2ABD2AF26
:030F2400D28E2248
:03001B00020F4988
:100F490053A87F43600143A880758DD0758B1032FB
:03002300020C5379
:100C5300C0E0C0F0C083C082C0D075D000C000C067
:100C630001C002C003C004C005C006C00730980E0F
:100C7300120FBE8F5D53A87F43600443A880D00743
:100C8300D006D005D004D003D002D001D000D0D0FC
:090C9300D082D083D0F0D0E03211
:100A23008D558B528A5389541208007042AF551268
:100A33000E0EAB52AA53A954EF120846AB52AA5357
:100A4300A954120800B40315AF55120E5EAB52AA97
:100A530053A954900001EF1208587F0122AB52AA08
:0F0A630053A954120800B4FF037F01227F002221
:100A7200AF55120E5E8E568F57E557B4FF12E556EC
:100A8200B4FF0DAB52AA53A95474FF120846800E4C
:100A9200AB52AA53A954900001E5571208587F019E
:010AA2002231
:0A0F7C00E412084690000102085834
:100E0E00EF24D6600E24FD6007240270097F0122B4
:100E1E007F02227F0322EFC394304009EFD394392F
:080E2E0050037F03227FFF2225
:100E5E00EFC39430400FEFD394395009EF24D0FFF5
:100E6E00E434FFFE22BF2A057E007F0A227EFF7F2A
:020E7E00FF2251
:100EFB00E58954F04401F589D2A9D28CD2AF758C17
:090F0B00FFE4F58AF5A0F561226E
:0E0F590053A87FEF75F00A84F56143A880224B
:080FA200E56175F00AA4FF22CD
:03000B00020E36AC
:100E3600C0E0C0D0758CFF758A00E562C39561502D
:100E46000575A0FF800375A0000562E562B40A037C
:080E5600756200D0D0D0E0323B
:100CE300E4FCFD7B20FAF9F812087AA804A905AA06
:100CF30006AB077F007EC07DA87C00120D27C3E4EE
:100D03009FFFE49EFEEF24FFFFEE34FFC29FD29EBF
:100D1300D29C75C834F5CBC3EF95CBF5CAD2ACC220
:030D230099C298DA
:010D260022AA
:050FBE00C298AF99226A
:0B0F670053A87F8F99C29943A88022F5
:0A0F8600120F67120FB8EF60FA2295
:0A0DAC008B568A5789588C598D5ACE
:100DB600E4F55BF55CC3E55C955AE55B9559501D1A
:100DC600AB56AA57A958855C82855B83120819FF22
:0D0DD600120F86055CE55C70DC055B80D8C3
:010DE30022ED
:060FB800A299E433FF22C0
:030000000209975B
:0C099700787FE4F6D8FD7581620209DE6D
:10080000BB010689828A83E0225002E722BBFE02F6
:09081000E32289828A83E4932229
:10081900BB010CE58229F582E5833AF583E0225094
:1008290006E92582F8E622BBFE06E92582F8E222DE
:0D083900E58229F582E5833AF583E49322F8
:10084600BB010689828A83F0225002F722BBFE0191
:02085600F3228B
:10085800F8BB010DE58229F582E5833AF583E8F0D6
:10086800225006E92582C8F622BBFE05E92582C882
:02087800F2226A
:10087A00E88FF0A4CC8BF0A42CFCE98EF0A42CFC1D
:10088A008AF0EDA42CFCEA8EF0A4CDA8F08BF0A49B
:10089A002DCC3825F0FDE98FF0A42CCD35F0FCEBFA
:1008AA008EF0A4FEA9F0EB8FF0A4CFC5F02ECD39BF
:0F08BA00FEE43CFCEAA42DCE35F0FDE43CFC222C
:100D2700C2D5E830E70FB2D5E4C39BFBE49AFAE4F7
:100D370099F9E498F8EC30E717B2D5120D5D12096E
:100D470005E4C39BFBE49AFAE499F9E498F8800375
:100D570012090530D50DE4C39FFFE49EFEE49DFD17
:040D6700E49CFC22EA
:1009A300020C02E493A3F8E493A34003F68001F25C
:1009B30008DFF48029E493A3F85407240CC8C33355
:1009C300C4540F4420C8834004F456800146F6DF24
:1009D300E4800B0102040810204080900F72E47E33
:1009E300019360BCA3FF543F30E509541FFEE49319
:1009F300A360010ECF54C025E060A840B8E493A3E0
:100A0300FAE493A3F8E493A3C8C582C8CAC583CA0A
:100A1300F0A3C8C582C8CAC583CADFE9DEE780BEC2
:010F7B000075
:1008C90075F008758200EF2FFFEE33FECD33CDCCE6
:1008D90033CCC58233C5829BED9AEC99E582984069
:1008E9000CF582EE9BFEED9AFDEC99FC0FD5F0D646
:1008F900E4CEFBE4CDFAE4CCF9A88222B800C1B970
:100909000059BA002DEC8BF084CFCECDFCE5F0CBAD
:10091900F97818EF2FFFEE33FEED33FDEC33FCEBE6
:1009290033FB10D703994004EB99FB0FD8E5E4F9A1
:10093900FA227818EF2FFFEE33FEED33FDEC33FC8E
:10094900C933C910D7059BE99A4007EC9BFCE99A82
:10095900F90FD8E0E4C9FAE4CCFB2275F010EF2FC7
:10096900FFEE33FEED33FDCC33CCC833C810D707C7
:100979009BEC9AE899400AED9BFDEC9AFCE899F802
:0E0989000FD5F0DAE4CDFBE4CCFAE4C8F92295
:00000001FF
